:1000000005C1000034C1000032C1000030C1000051
:100010002EC100002CC100002AC1000028C1000030
:1000200026C1000024C1000022C1000020C1000040
:100030001EC100001CC100001AC1000018C1000050
:1000400016C1000014C1000012C1000010C1000060
:100050000EC100000CC100000AC100000C94D010B9
:1000600006C100000C9494140C94CA1400C1000042
:10007000FEC00000FCC00000FAC00000F8C0000094
:10008000F6C00000F4C00000F2C00000F0C00000A4
:100090000C9420150C945615EAC00000E8C000002E
:1000A000E6C00000E4C00000E2C00000E0C00000C4
:1000B000DEC00000DCC00000DAC00000D8C00000D4
:1000C000D6C00000D4C000000C94B20D0C94AC1546
:1000D0000C94E215CCC000000C9438160C946E16EB
:1000E000C6C0000000000A0B02090C0D0E08070331
:1000F00004010000000000000000000000000000FB
:1001000000000000000000000000000000000000EF
:1001100012111000000000000000000000000000AC
:100120000000000000000000000001021020200874
:100130000810204010204080020102010804020142
:1001400001020408102040808040201008040201B1
:10015000800402018040201008040201080402010A
:100160000102040810204080010204081020408091
:1001700005050505070508080808020202020A0A23
:100180000808040404040101010101010101030341
:10019000030303030303040707070C0C0C0C0C0CEC
:1001A0000C0C0202020206060606060606060B0BE9
:1001B0000B0B0B0B0B0B000020002300260029006B
:1001C0002C002F003200000100000301060109018C
:1001D00000002200250028002B002E0031003400F2
:1001E00002010000050108010B01000021002400AC
:1001F00027002A002D003000330001010000040117
:1002000007010A01F3147F150B16971611241FBE60
:10021000CFEFD1E2DEBFCDBF00E00CBF12E0A0E027
:10022000B2E0EAE3FEE200E00BBF02C007900D92ED
:10023000AE38B107D9F727E0AEE8B2E001C01D92B1
:10024000AD33B207E1F711E0C6E0D1E000E006C04F
:1002500021970109802FFE010E941317C230D10798
:1002600080E00807A9F70E94190E0C941B17C8CE4E
:10027000611102C00C94D9126130E1F362E0FACF4F
:10028000662319F061E00C94151360E0FCCF0E9426
:10029000421321E0019709F020E0822F089508958C
:1002A000CF92DF92EF92FF92CF93882351F16A01B0
:1002B0007B01CFEFC80F20E030E0A901CB01B601F0
:1002C0000E94C70E87FF11C0C701B60190580E9457
:1002D000380F9B01AC016C2F70E090E080E0CF9173
:1002E000FF90EF90DF90CF90B2C0C701B6010E949F
:1002F000330F8C2FCF91FF90EF90DF90CF900C9425
:100300009F11CF91FF90EF90DF90CF9008950F93C2
:100310001F938B019C0183E03695279517950795D0
:100320008A95D1F702571D4F462F477021E030E0E4
:10033000F90102C0EE0FFF1F4A95E2F7AF01F80185
:1003400020812423CB010196211102C090E080E09E
:100350001F910F9108950F931F938B019C0183E0D0
:1003600036952795179507958A95D1F7677081E09F
:1003700090E001C0880F6A95EAF7F801E257FD4F57
:100380002081452B31F48095822380831F910F912A
:100390000895822BFACF2F923F924F925F926F92E5
:1003A0007F928F929F92AF92BF92CF92DF92EF9205
:1003B000FF920F931F93CF93DF93D62EC72E782EE5
:1003C000692E49015A01280161E08D2D0E94D91240
:1003D000CD2DDC2D8E010F5F1F4FA8016D2D7C2DC3
:1003E000872D962DB8DF20E030E0A901C201B701CA
:1003F0000E946910181664F4C201B7010E94380FF8
:100400002B01C501B4010E94380FA201CE0123D0F7
:10041000C801DF91CF911F910F91FF90EF90DF9076
:10042000CF90BF90AF909F908F907F906F905F9094
:100430004F903F902F900895882341F08150682F6E
:1004400070E090E080E050E040E085CF0895862F96
:10045000B9010C949F119C01FC01EC51FF4FE491F8
:10046000E150E231E0F4F0E08827E65CFD4F8F4F89
:100470000C9413174C02530256026D0282024F0273
:100480009702A302A702BE02D302E802FF021403EE
:100490004F0229034003550384B5806884BD60E0A2
:1004A000822F0C94151384B58062F8CF8091800060
:1004B0008C7F82608093800080918100807E80614B
:1004C000682B609381005093870040938600809151
:1004D0008000806880938000E2CF809180008C7FD4
:1004E00082608093800080918100807E8061682B93
:1004F0006093810050938700409386008091800034
:100500008062E8CF809180008C7F82608093800041
:1005100080918100807E8061682B60938100509380
:10052000870040938600809180008860D3CF8091BF
:10053000B00080688093B0008091B100887F682B04
:100540006093B100ACCF8091B0008062F3CF809116
:1005500090008C7F82608093900080919100807EDB
:100560008061682B609391005093970040939600B0
:100570008091900080688093900091CF809190004E
:100580008C7F82608093900080919100807E80615A
:10059000682B609391005093970040939600809150
:1005A00090008062E8CF809190008C7F8260809381
:1005B000900080919100807E8061682B6093910013
:1005C0005093970040939600809190008860D3CF1D
:1005D0008091A0008C7F82608093A0008091A10018
:1005E000807E8061682B6093A1005093A7004093A8
:1005F000A6008091A00080688093A00050CF8091D9
:10060000A0008C7F82608093A0008091A100807EFA
:100610008061682B6093A1005093A7004093A600CF
:100620008091A0008062E8CF8091A0008C7F8260E2
:100630008093A0008091A100807E8061682B6093F0
:10064000A1005093A7004093A6008091A00088606D
:10065000D3CF809120018C7F826080932001809194
:100660002101807E8061682B6093210150932701D6
:1006700040932601809120018068809320010FCF54
:10068000809120018C7F82608093200180912101E4
:10069000807E8061682B60932101509327014093F5
:1006A0002601809120018062E8CF809120018C7F1B
:1006B00082608093200180912101807E8061682B7F
:1006C00060932101509327014093260180912001DE
:1006D0008860D3CFCF93DF93882349F0EB0181501B
:1006E0000E947C1199838883DF91CF910895FB014B
:1006F00011821082F9CF0F931F938B019C0183E02D
:1007000036952795179507958A95D1F709561D4F68
:10071000462F477021E030E0F90102C0EE0FFF1FC5
:100720004A95E2F7AF01F80120812423CB0101961D
:10073000211102C090E080E01F910F9108950F9366
:100740001F938B019C0183E036952795179507959C
:100750008A95D1F7677081E090E001C0880F6A95B3
:10076000EAF7F801E956FD4F2081452B31F48095D9
:10077000822380831F910F910895822BFACFCF920D
:10078000DF92EF92FF92CF93DF936B017C0160E0E9
:1007900086E3C816D104E104F10490F486E38C0DDD
:1007A0000E94D912E6012196AE01C701B601C7DF4A
:1007B000CE01DF91CF91FF90EF90DF90CF90089521
:1007C0008C2DEECF882341F08150682F70E090E0AF
:1007D00080E050E040E0B3CF0895CF93DF93EC0189
:1007E00089819A81AB81BC810197A105B105C1F4D2
:1007F0008D818823A9F06A857B858C859D8587DD21
:100800009987888740E050E0BA014ADD6A857B8598
:100810008C859D857CDD99878887DF91CF910CCE73
:10082000DF91CF910895FC012081211102C021E0C8
:10083000208308958F929F92AF92BF92CF92DF92C2
:10084000EF92FF92CF93DF934B015C01EA01C880E6
:10085000D980EA80FB8020E030E0A9010E94691085
:10086000181674F120E030E0A901C501B4010E941E
:10087000C70E881F8827881F91E0892790E025E010
:10088000C216D104E104F10409F460C0AC01092EE0
:10089000000C660B770BC416D506E606F70699F42E
:1008A00040E050E0BA01CB01BA01DF91CF91FF9057
:1008B000EF90DF90CF90BF90AF909F908F90089572
:1008C00082E090E0DCCF23E0C216D104E104F10421
:1008D00051F4E2E0F0E08130910581F4F0E0E0E0F5
:1008E00021E030E010C024E0C216D104E104F1049C
:1008F000D1F4E3E0F0E08130910581F325E030E0D0
:1009000082309105F1F040E050E0BA01E417F507BC
:10091000C1F18130910519F442305105B1F1253012
:100920003105B9F425C0F0E0E0E021E0C216D104C1
:10093000E104F10419F325E030E0CD28CE28CF28DA
:1009400011F742E050E060E070E0E0CF9C0185E00C
:1009500090E0A901330F660B770B488359836A83B4
:100960007B838530910509F49BCF40E050E0BA01CC
:10097000092E000CAA0BBB0B88839983AA83BB8327
:1009800092CF40E050E0BA01CACF83E090E042E06D
:1009900050E060E070E0C3CF0F931F93CF93DF93DD
:1009A000EB01488159816A817B818823E1F082E0F3
:1009B00090E0453051056105710509F45AC08C017C
:1009C000092E000C220B330B4017510762077307E7
:1009D00069F440E050E0BA01CB01BA01DF91CF9158
:1009E0001F910F91089581E090E0E3CF43305105CE
:1009F0006105710551F4E2E0F0E08130910579F490
:100A0000F0E0E0E021E030E01DC044305105610538
:100A1000710561F4E3E0F0E08130910589F325E0B0
:100A200030E042E050E060E070E00FC0F0E0E0E075
:100A30004130510561057105A9F425E030E08230AF
:100A4000910569F340E050E0BA01E417F507B1F110
:100A50008130910549F54230510549F12530310584
:100A600059F419C025E030E0452B462B472BC9F23D
:100A7000E9CF9C0185E090E0A901330F660B770B6D
:100A8000488359836A837B838530910509F4A1CF1C
:100A900040E050E0BA01092E000CAA0BBB0B888382
:100AA0009983AA83BB8398CF82E090E0D7CF83E07D
:100AB00090E042E050E060E070E0D0CF81309105FE
:100AC00011F082E090E040E050E0BA01C7CFCF9251
:100AD000DF92EF92FF926B017C019F7720E030E084
:100AE00040E859E50E94C70E87FF2BC020E030E0A8
:100AF00040E05FE3C701B6010E94691087FD0EC0A8
:100B000020E030E040E05FE3C701B6010E94500EF4
:100B1000FF90EF90DF90CF900C94A10F20E030E099
:100B200040E05FEBC701B6010E946910181684F41B
:100B300020E030E0A901C701B6010E946D106B01F1
:100B40007C01C701B601FF90EF90DF90CF90089530
:100B500020E030E040E05FE3C701B6010E944F0EA5
:100B6000FF90EF90DF90CF900C94B40E2F923F92B5
:100B70004F925F926F927F928F929F92AF92BF92AD
:100B8000CF92DF92EF92FF921F93CF93DF93CDB777
:100B9000DEB768970FB6F894DEBF0FBECDBFC0902A
:100BA0000A02D0900B02E0900C02F0900D02A70117
:100BB000960160915E0570915F058091600590914E
:100BC00061050E94C70E882341F0C0925E05D09255
:100BD0005F05E0926005F092610583E158DB182F14
:100BE000609112027091130280911402909115028B
:100BF00042E956E01FDE672B682B692B41F080919C
:100C000000029091010290939706809396066EE8F9
:100C100076E0812FC1DE672B682B692B71F0809104
:100C2000960690919706803E2EE2920708F0DDC06E
:100C300001969093970680939606809196069091E0
:100C40009706988B8F87E0912D07F0912E07808073
:100C50009180A280B3808091160290911702A0919A
:100C60001802B09119028B839C83AD83BE8380915F
:100C7000220290912302A0912402B0912502898B37
:100C80009A8BAB8BBC8B80911E0290911F02A0911E
:100C90002002B09121028F839887A987BA8780911B
:100CA0001A0290911B02A0911C02B0911D028D8B23
:100CB0009E8BAF8BB88F8091260290912702A091D6
:100CC0002802B09129028B879C87AD87BE87C09090
:100CD0000602D0900702E0900802F0900902A701F6
:100CE000960160916A0570916B0580916C059091F9
:100CF0006D050E94C70E882341F0C0926A05D0920C
:100D00006B05E0926C05F0926D0584E0C0DA182F57
:100D1000C0900202D0900302E0900402F09005021D
:100D2000A701960160915205709153058091540579
:100D3000909155050E94C70E882341F0C09252053C
:100D4000D0925305E0925405F09255056CE370E0A3
:100D500080E090E0D0DC909351058093500543E013
:100D600050E0BE016F5F7F4FB5DC80912B07909103
:100D70002C07019709F0E9C120902D0730902E072C
:100D8000D101CD90DD90ED90FC9020918A063091BC
:100D90008B0640918C0650918D06C701B6017FD716
:100DA000C0928A06D0928B06E0928C06F0928D0655
:100DB00020918606309187064091880650918906D9
:100DC0006FD72B013C0140928606509287066092B5
:100DD0008806709289068091980681110BC081E087
:100DE00080939806809399065AC0109297061092A5
:100DF000960623CF60910E0270910F02809110022F
:100E00009091110220919906213009F04CC020E008
:100E100030E040E85FE3BBD781119BC192E0909343
:100E2000990680919B06833021F0843039F181301E
:100E300059F480939A0610928606109287061092B3
:100E400088061092890604C090939A0690939B0698
:100E500081E080939C0680939D0690919F0692303E
:100E600081F080939E0680939F0610923707109220
:100E700038071092390710923A0711C080939A06EA
:100E8000E7CF90939E0680E090E0A0E8BFE38093D8
:100E9000370790933807A0933907B0933A0781E05A
:100EA0008093AB0652C120E030E0A90170D78111D8
:100EB00008C010929E0610929C0610929A0681E03D
:100EC00091CFEF85F889BF0190E080E0FDD7A501C3
:100ED000940161D72B813C814D815E81E0D64B012D
:100EE0005C012F81388549855A8569897A898B8982
:100EF0009C89D5D69B01AC01C501B4010E946D103F
:100F00004B015C012B813C814D815E816D897E8925
:100F10008F89988DC4D69B01AC01C501B4013BD724
:100F20002F81388549855A85BBD64B015C0180915C
:100F30009A06823009F451C0833009F47DC08130B3
:100F400009F0A2C0A7019601D1016D917D918D910B
:100F50009C91A5D6A3019201A3D620E030E040E801
:100F60005FE30E94691087FD04C0112321F083E034
:100F700037C011114EC081E080939B061092860607
:100F800010928706109288061092890611E08091CF
:100F90009C06A5019401813009F0CCC06B857C854D
:100FA0008D859E850E94691087FD0AC089819A817E
:100FB000459730F082E080939C0680939D0611E077
:100FC00080919E06813009F4BEC089819A81843661
:100FD000910509F0B8C081E044CF111104C081E04F
:100FE00080939A06C9CFE980FA8020E030E040E89B
:100FF0005FE360912E0270912F02809130029091F8
:101000003102C5D6811107C084E0B4E1EB16F104CA
:10101000B0F110E0BCCFE4E1EE16F104D0F780E0CF
:1010200090E0A0E8BFE38093370790933807A09340
:101030003907B0933A079BCFA7019601D1016D9173
:101040007D918D919C912BD6A301920129D620E010
:1010500030E040E85FE30E94691087FD02C0111193
:101060000DC0A501940160912A0270912B0280911C
:101070002C0290912D028BD618165CF282E08093A0
:101080009A0680939B0682CFE980FA8020E030E0C8
:1010900040E85FE360912E0270912F028091300250
:1010A0009091310274D681113FC0B4E1EB16F10486
:1010B000D8F510929C0680919B06833061F18430B4
:1010C00029F1813011F580939A06109286061092CC
:1010D0008706109288061092890680919D068130BD
:1010E00001F18230F1F082E080939E0680939F06AA
:1010F00080E090E0A0E8BFE3809337079093380743
:10110000A0933907B0933A0741CF82E080939A06C3
:1011100080939B06E2CF83E080939A0680939B06A0
:10112000D4CF80939C06DFCFE4E6EE16F10409F0FD
:1011300070CF55CF6B857C858D859E85CAD787FFFF
:101140003FCF81E038CF1111AACE8091990681302E
:1011500071F41092370710923807109239071092E5
:101160003A07812CA12CC12CE12C10E028C08091E1
:101170009A068150833008F0C5C190E0FC01EA581E
:10118000FD4FE0800E2C000CFF08FC01ED58FD4FD8
:10119000C0800C2C000CDD08FC01E059FD4FA08044
:1011A0000A2C000CBB0883599D4FDC018C90082C45
:1011B000000C990811E080919C068130B1F2609199
:1011C0003707709138078091390790913A077FDC93
:1011D0002B013C0120E030E040E853E4D8D56FEF2C
:1011E00087FF0CC020E030E0A901C301B20171D734
:1011F00060E087FD03C0C301B2013AD682E140D866
:10120000682D83E03DD86A2D82E03AD86C2D88E0C5
:1012100037D86E2D87E034D8612F8CE031D86091BB
:101220002A0570912B0580912C0590912D056FD882
:101230005C019093290580932805C0904602D090C8
:101240004702E0904802F090490220E030E04FE78A
:1012500053E4C701B6019BD587FF59C120E030E0B8
:10126000A901C701B60135D718160CF057C1B7014F
:10127000A601C50115D86091380570913905809196
:101280003A0590913B0543D85C01909337058093D4
:101290003605C0904602D0904702E0904802F09098
:1012A000490220E030E04FE753E4C701B6016FD5B3
:1012B00087FF38C120E030E0A901C701B60109D796
:1012C00018160CF036C1B701A601C5010E945001E5
:1012D00060914A0270914B0280914C0290914D02B4
:1012E000F6DB6B017C0120E030E040E853E44FD5B1
:1012F0006FEF87FF0CC020E030E0A901C701B60105
:10130000E8D660E087FD03C0C701B601B1D58BE028
:101310000E94400160914605709147058091480503
:10132000909149050E9487015C0190934505809347
:101330004405C0904E02D0904F02E0905002F090D1
:10134000510220E030E04FE753E4C701B6011FD55A
:1013500087FFF3C020E030E0A901C701B601B9D68C
:1013600018160CF0F1C0B701A601C5010E9450018A
:1013700060915202709153028091540290915502F3
:10138000A6DB6B017C0120E030E040E853E4FFD4B1
:101390006FEF87FF0CC020E030E0A901C701B60164
:1013A00098D660E087FD03C0C701B60161D58EE025
:1013B0000E9440016091560270915702809158023C
:1013C0009091590284DB6B017C0120E030E040E821
:1013D00053E4DDD46FEF87FF0CC020E030E0A901BB
:1013E000C701B60176D660E087FD03C0C701B6012C
:1013F0003FD580E10E94400120E030E040E853E426
:10140000C701B601C4D46FEF87FF0CC020E030E005
:10141000A901C701B6015DD660E087FD03C0C70121
:10142000B60126D58FE00E94400120E030E040E880
:1014300053E4C701B601ABD46FEF87FF0CC020E0C7
:1014400030E0A901C701B60144D660E087FD03C0C2
:10145000C701B6010DD581E10E94400160911F07CF
:101460007091200780912107909122076F5F7F4F35
:101470008F4F9F4F60931F07709320078093210722
:1014800090932207E0902D07F0902E071DD59B0129
:10149000AC016091230770912407809125079091FA
:1014A00026071BD6F7016083718382839383809123
:1014B000270790912807A0912907B0912A07019644
:1014C000A11DB11D8093270790932807A09329079A
:1014D000B0932A0768960FB6F894DEBF0FBECDBF53
:1014E000DF91CF911F91FF90EF90DF90CF90BF9051
:1014F000AF909F908F907F906F905F904F903F90B4
:101500002F900895812CA12CC12CE12C53CEC12CFD
:10151000D12C2FE7E22E23E4F22EA9CEC12CD12C20
:101520007601A5CEC12CD12C9FE7E92E93E4F92EAC
:10153000CACEC12CD12C7601C6CEC12CD12C8FE7BE
:10154000E82E83E4F82E0FCFC12CD12C76010BCFDF
:101550002F923F924F925F926F927F928F929F92C3
:10156000AF92BF92CF92DF92EF92FF920F931F93B1
:10157000CF93DF93E0EAF6E0CBE2D7E0D583C483F4
:101580008DE297E097AF86AFA3E2B7E0B38BA28B73
:10159000F0930907E0930807F383E28381E090E08A
:1015A000998388838BE592E0918780878FE297E02B
:1015B000EDE2F7E0918380834DEC5CEC6CEC7DE335
:1015C0004D935D936D937C931397C0E2D5E085E0D6
:1015D00090E0A0E0B0E080938E0690938F06A093F9
:1015E0009006B09391068093920690939306A093F1
:1015F0009406B093950600E012E0D8018D919C917D
:10160000119790939706809396061EAA1A968D912D
:101610009D910D90BC91A02D80935E0590935F05E8
:10162000A0936005B0936105812C912C54018394A3
:101630008FAA98AEA9AEBAAE60E083E10E943801ED
:10164000DD24D394DBAE10926205F8018681978188
:10165000A085B18580936A0590936B05A0936C0576
:10166000B0936D058092630590926405A092650524
:10167000B092660560E084E00E943801D092670570
:101680001AA6F80182819381A481B5818AAB9BABB4
:10169000ACABBDAB1FA68BA69CA6ADA6BEA66CE34D
:1016A00070E080E090E06BD899AB88ABDFA6109239
:1016B0002E0680922F0690923006A0923106B092AC
:1016C000320661E082E10E943801D0923306109226
:1016D00036068092370690923806A0923906B0926C
:1016E0003A0661E083E00E943801D0923B061092F6
:1016F0003E0680923F0690924006A0924106B0922C
:10170000420661E082E00E943801D09243061092C6
:1017100046068092470690924806A0924906B092EB
:101720004A0661E088E00E943801D0924B06109290
:101730004E0680924F0690925006A0925106B092AB
:10174000520661E087E00E943801D0925306109261
:1017500056068092570690925806A0925906B0926B
:101760005A0661E08CE00E943801D0925B06188234
:10177000EEE7F5E092E3692E608223E3722E709229
:101780007F0534E3232E2092800545E3342E3092EA
:10179000810556E3452E4092820567E3562E50920E
:1017A000830588E38093840599E39093850571E32D
:1017B000C72EC0928605A0E3A0938705C092880536
:1017C000C0928905C0928A0560928B05C0928C05F3
:1017D00070928D05FF83EE8389E090E0A0E0B0E099
:1017E0008A879B87AC87BD871D8289829A82AB825C
:1017F000BC82E12CF12C8701A801970169E070E01F
:1018000080E090E00E94CB01998788876A857B857C
:101810008C859D850E948701998788870E944F014A
:10182000DD821E86EEEBF5E060827092BF052092AD
:10183000C0053092C1054092C2055092C305B8E37D
:10184000B093C40589E38093C505C092C60590E3B3
:101850009093C705C092C805C092C905C092CA0539
:101860006092CB05C092CC057092CD05FD8BEC8BC0
:1018700086E090E0A0E0B0E0888F998FAA8FBB8FC0
:101880001B8A8F86988AA98ABA8AA801970166E07E
:1018900070E080E090E00E94CB019F8B8E8B688D82
:1018A000798D8A8D9B8D0E9487019F8B8E8B0E94E4
:1018B0004F01DB8A10925E0680925F06909260066E
:1018C000A0926106B092620661E08BE00E9438014E
:1018D000D09263061C8EEEEFF5E060827092FF05F9
:1018E00020920006309201064092020650920306B2
:1018F000A8E3A0930406B9E3B0930506C0920606D8
:1019000080E380930706C0920806C0920906C09241
:101910000A0660920B06C0920C0670920D06FBA39D
:10192000EAA38DE090E0A0E0B0E08EA39FA3A8A77B
:10193000B9A719A28D8E9E8EAF8EB8A2A80197016D
:101940006DE070E080E090E00E94CB019DA38CA34D
:101950006EA17FA188A599A50E9487019DA38CA354
:101960000E944F01D9A2109266068092670690925B
:101970006806A0926906B0926A0661E08EE00E9455
:101980003801D0926B0610926E0680926F0690928C
:101990007006A0927106B092720661E080E10E942A
:1019A0003801D09273061092760680927706909254
:1019B0007806A0927906B0927A0661E08FE00E94E4
:1019C0003801D0927B0610927E0680927F0690921C
:1019D0008006A0928106B092820661E081E10E94B9
:1019E0003801D0928306ADE2B7E0ED91FC918081A1
:1019F0009181A281B38180938A0690938B06A093F4
:101A00008C06B0938D06DF91CF911F910F91FF90BF
:101A1000EF90DF90CF90BF90AF909F908F907F908E
:101A20006F905F904F903F902F90089586E595E0DE
:101A30000E94130482E695E00E94130480914A05F7
:101A400081111FC081E080934A0580914B059091E0
:101A50004C05A0914D05B0914E050197A105B1052A
:101A600081F480914F05882361F06CE370E080E0A1
:101A700090E00E947B0390935105809350050E9453
:101A8000E2038EE296E00E94130486E396E00E9451
:101A900013048EE396E00E94130486E496E00E940D
:101AA00013048EE496E00E94130486E596E00E94FB
:101AB000130480912005811107C081E080932005E7
:101AC00080E295E00E94ED0380912E05811107C010
:101AD00081E080932E058EE295E00E94ED038EE575
:101AE00096E00E94130480913C05811107C081E0BB
:101AF00080933C058CE395E00E94ED0386E696E03A
:101B00000E9413048EE696E00E94130486E796E096
:101B10000E9413048EE796E00C94130440E855E20B
:101B200060E070E090E080E000C08130910571F0ED
:101B30001CF4892B39F008958230910559F00397F0
:101B400069F0089526E08CEA92E08EC626E089E4EA
:101B500093E0FBCF26E086EE93E0F7CF26E083E824
:101B600094E0F3CF1F920F920FB60F9211240BB691
:101B70000F922F933F934F935F936F937F938F9326
:101B80009F93AF93BF93EF93FF9386E997EE909364
:101B900025018093240134D0FF91EF91BF91AF9143
:101BA0009F918F917F916F915F914F913F912F9175
:101BB0000F900BBE0F900FBE0F901F90189586E9E7
:101BC00097EE9093250180932401A3E7B0E08C91D8
:101BD0008E7F8C93E0E2F1E080818C7F8083E1E274
:101BE000F1E08081877E8083808184608083808132
:101BF0008C7F80838C9181608C93089581E008951F
:101C00008091A00291E0980F9093A002882349F060
:101C100021E030E03093A2022093A1028093A00241
:101C2000089578940E94B605F8948091A00281509E
:101C3000F5CFCF93DF9310923C0710923B07FAD277
:101C40006DDFC0917902D0917A021982188280DC0E
:101C5000B6DF81E028813981232B09F080E0809371
:101C60003B077894789480913B07811107C0DEDEB2
:101C7000F89490E080E0DF91CF91089581E0288191
:101C80003981232B09F480E080933C0790913C0735
:101C900081E0911180E080933B07B0DFE4CF5058A2
:101CA000BB27AA270ED0C4C1B5D130F0BAD120F0DD
:101CB00031F49F3F11F41EF4AAC10EF4E095E7FB46
:101CC00077C1E92FC6D180F3BA176207730784077B
:101CD000950718F071F49EF5F5C10EF4E0950B2E02
:101CE000BA2FA02D0B01B90190010C01CA01A0016E
:101CF0001124FF27591B99F0593F50F4503E68F1C9
:101D00001A16F040A22F232F342F4427585FF3CF09
:101D1000469537952795A795F0405395C9F77EF4DA
:101D20001F16BA0B620B730B840BBAF09150A1F023
:101D3000FF0FBB1F661F771F881FC2F70EC0BA0FA9
:101D4000621F731F841F48F4879577956795B79531
:101D5000F7959E3F08F0B3CF9395880F08F0992729
:101D6000EE0F97958795089596D180F09F3740F4B0
:101D700091110EF4A8C160E070E080E89FE308953F
:101D800026F01B16611D711D811D18C132C1ECD0DA
:101D900008F481E008950CD04BC143D140F03AD112
:101DA00030F021F45F3F19F003C151118CC12FC1F4
:101DB00050D198F39923C9F35523B1F3951B550BD3
:101DC000BB27AA2762177307840738F09F5F5F4F0E
:101DD000220F331F441FAA1FA9F333D00E2E3AF04F
:101DE000E0E830D091505040E695001CCAF729D069
:101DF000FE2F27D0660F771F881FBB1F26173707B8
:101E00004807AB07B0E809F0BB0B802DBF01FF27E7
:101E100093585F4F2AF09E3F510568F0C9C053C1E7
:101E20005F3FECF3983EDCF3869577956795B79521
:101E3000F7959F5FC9F7880F911D9695879597F93C
:101E40000895E1E0660F771F881FBB1F62177307B5
:101E50008407BA0720F0621B730B840BBA0BEE1FCA
:101E600088F7E095089504D06894B1112CC10895C5
:101E7000F8D088F09F5790F0B92F9927B751A0F06C
:101E8000D1F0660F771F881F991F1AF0BA95C9F70E
:101E900012C0B13081F016D1B1E0089513C1672F9F
:101EA000782F8827B85F39F0B93FCCF386957795BE
:101EB0006795B395D9F73EF49095809570956195A7
:101EC0007F4F8F4F9F4F0895E89409C097FB3EF4D2
:101ED00090958095709561957F4F8F4F9F4F992377
:101EE000A9F0F92F96E9BB279395F69587957795F5
:101EF0006795B795F111F8CFFAF4BB0F11F460FFB5
:101F00001BC06F5F7F4F8F4F9F4F16C0882311F00C
:101F100096E911C0772321F09EE8872F762F05C020
:101F2000662371F096E8862F70E060E02AF09A95BB
:101F3000660F771F881FDAF7880F9695879597F9B0
:101F40000895A9D080F09F3740F491110EF0BBC0E6
:101F500060E070E080E89FEB089526F41B16611D99
:101F6000711D811D2BC045C0990F0008550FAA0B8C
:101F7000E0E8FEEF16161706E807F907C0F012169C
:101F80001306E407F50798F0621B730B840B950B9F
:101F900039F40A2661F0232B242B252B21F40895F4
:101FA0000A2609F4A140A6958FEF811D811D089591
:101FB00097F99F6780E870E060E00895882371F4E6
:101FC000772321F09850872B762F07C0662311F4D2
:101FD00099270DC09051862B70E060E02AF09A9509
:101FE000660F771F881FDAF7880F9695879597F900
:101FF00008959F3F31F0915020F48795779567952C
:10200000B795880F911D9695879597F908959FEF3D
:1020100080EC089500240A9416161706180609067F
:10202000089500240A94121613061406050608954E
:10203000092E0394000C11F4882352F0BB0F40F4D6
:10204000BF2B11F460FF04C06F5F7F4F8F4F9F4F16
:10205000089557FD9058440F551F59F05F3F71F098
:102060004795880F97FB991F61F09F3F79F08795FF
:102070000895121613061406551FF2CF4695F1DF88
:1020800008C0161617061806991FF1CF8695710518
:10209000610508940895E5DFA0F0BEE7B91788F45C
:1020A000BB279F3860F41616B11D672F782F88273D
:1020B000985FF7CF869577956795B11D939596397B
:1020C000C8F30895E894BB2766277727CB0197F9D3
:1020D00008954ADF08F48FEF08950BD0A9CF9ADF57
:1020E00028F09FDF18F0952309F062CF90CF1124DC
:1020F000EACFAFDFA0F3959FD1F3950F50E0551FC6
:10210000629FF001729FBB27F00DB11D639FAA274C
:10211000F00DB11DAA1F649F6627B00DA11D661F9B
:10212000829F2227B00DA11D621F739FB00DA11DBC
:10213000621F839FA00D611D221F749F3327A00D76
:10214000611D231F849F600D211D822F762F6A2F12
:1021500011249F5750408AF0E1F088234AF0EE0F97
:10216000FF1FBB1F661F771F881F91505040A9F7A4
:102170009E3F510570F01CCFA6CF5F3FECF3983E19
:10218000DCF3869577956795B795F795E7959F5F0B
:10219000C1F7FE2B880F911D9695879597F90895A5
:1021A0001F920F920FB60F9211242F933F938F938C
:1021B0009F93AF93BF938091A4029091A502A091A9
:1021C000A602B091A7023091A30223E0230F2D377E
:1021D00058F50196A11DB11D2093A3028093A4027E
:1021E0009093A502A093A602B093A7028091A802A3
:1021F0009091A902A091AA02B091AB020196A11DF3
:10220000B11D8093A8029093A902A093AA02B09353
:10221000AB02BF91AF919F918F913F912F910F9002
:102220000FBE0F901F90189526E8230F0296A11D50
:10223000B11DD2CF789484B5826084BD84B58160AD
:1022400084BD85B5826085BD85B5816085BDEEE6BE
:10225000F0E0808181608083E1E8F0E0108280819D
:1022600082608083808181608083E0E8F0E080810B
:1022700081608083E1EBF0E0808184608083E0EB2B
:10228000F0E0808181608083E1E9F0E0808182601C
:102290008083808181608083E0E9F0E080818160DB
:1022A0008083E1EAF0E080818260808380818160C8
:1022B0008083E0EAF0E0808181608083E1E2F1E008
:1022C000808182608083808181608083E0E2F1E0B0
:1022D000808181608083EAE7F0E080818460808390
:1022E000808182608083808181608083808180683A
:1022F00080831092C1000895863308F086532091A0
:102300007B00982F9870277F922B90937B002091D1
:102310005A0290E4299F900111248770822B8093A8
:102320007C0080917A00806480937A0080917A00AA
:1023300086FDFCCF809178009091790008951F93DD
:10234000CF93DF93182FEB0161E033D1209731F465
:1023500060E0812FDF91CF911F9167C1CF3FD10501
:1023600011F461E0F6CFE12FF0E0EC51FF4FE49182
:10237000E150E23108F0B2C0F0E08827EE53FE4EA3
:102380008F4F51C5D411DC11E111EB11F5116E1213
:10239000FF1107120F12191223122D123C124612AE
:1023A0006E1250125A12641284B5806884BDC7BD83
:1023B000DF91CF911F91089584B5806284BDC8BD1F
:1023C000F7CF80918000806880938000D09389004F
:1023D000C0938800EDCF8091800080628093800060
:1023E000D0938B00C0938A00E3CF809180008860F7
:1023F00080938000D0938D00C0938C00D9CF8091C2
:10240000B00080688093B000C093B300D1CF8091BA
:10241000B00080628093B000C093B400C9CF8091B7
:102420009000806880939000D0939900C0939800AA
:10243000BFCF80919000806280939000D0939B00EA
:10244000C0939A00B5CF80919000886080939000EF
:10245000D0939D00C0939C00ABCF8091A00080687A
:102460008093A0008091A0008F7B8093A000D093E8
:10247000A900C093A8009CCF8091A00080628093A7
:10248000A000D093AB00C093AA0092CF8091A0008F
:1024900088608093A000D093AD00C093AC0088CF3B
:1024A00080912001806880932001D0932901C093FE
:1024B00028017ECF80912001806280932001D093FB
:1024C0002B01C0932A0174CF8091200188608093F2
:1024D0002001D0932D01C0932C016ACFC038D105C3
:1024E0000CF03FCF35CF8150823108F059C0E82F32
:1024F000F0E08827E258FD4E8F4F95C49E12A2123D
:10250000901296129A12D012A512AB12AF12B512F7
:10251000B912BD12C312C712D012CB12D112D512EA
:10252000809180008F778093800008958091800053
:102530008F7DF9CF80918000877FF5CF84B58F772D
:1025400084BD089584B58F7DFBCF8091B0008F77D7
:102550008093B00008958091B0008F7DF9CF809175
:1025600090008F77809390000895809190008F7DE8
:10257000F9CF80919000877FF5CF8091A0008F7771
:102580008093A00008958091A0008F7DF9CF809165
:10259000A000877FF5CF809120018F778093200165
:1025A0000895809120018F7DF9CF80912001877F50
:1025B000F5CFCF93DF9390E0FC01E65DFE4F2491D1
:1025C00080599E4FFC0184918823C9F090E0880FC8
:1025D000991FFC01E651FE4FA591B491FC01E05317
:1025E000FE4FC591D49161110DC09FB7F8948C91A5
:1025F000209582238C938881282328839FBFDF9195
:10260000CF910895623051F49FB7F8943C91822F96
:10261000809583238C93E8812E2BEFCF8FB7F8948E
:10262000EC912E2B2C938FBFEACF1F93CF93DF9388
:10263000282F30E0F901EC51FF4F8491F901E65D5C
:10264000FE4FD491F901E059FE4FC491CC23A1F083
:10265000162F811148DFEC2FF0E0EE0FFF1FE05343
:10266000FE4FA591B4918FB7F894EC91111108C069
:10267000D095DE23DC938FBFDF91CF911F9108951A
:10268000DE2BF8CFCF93DF93282F30E0F901EC5108
:10269000FF4F8491F901E65DFE4FD491F901E059B5
:1026A000FE4FC491CC2399F081111DDFEC2FF0E097
:1026B000EE0FFF1FEA54FE4FA591B491EC91ED236C
:1026C00081E090E009F480E0DF91CF91089580E00F
:1026D00090E0FACFFC01918D228D892F90E0805CF3
:1026E0009F4F821B91098F7399270895FC01918D4B
:1026F000828D981731F0828DE80FF11D858D90E065
:1027000008958FEF9FEF0895FC01918D828D9817AA
:1027100061F0A28DAE0FBF2FB11D5D968C91928D91
:102720009F5F9F73928F90E008958FEF9FEF0895C2
:10273000FC01538D448D252F30E0842F90E0821BC7
:10274000930B541710F0CF96089501970895FC014C
:10275000A48DA80FB92FB11DA35ABF4F2C91848D02
:1027600090E001968F739927848FA689B7892C935F
:10277000A089B1898C91837080648C93938D848DB2
:10278000981306C00288F389E02D80818F7D8083B5
:102790000895CF93DF93EC01888D8823B1F0AA8947
:1027A000BB89E889F9898C9185FD03C0808186FD0C
:1027B0000CC00FB607FCF7CF8C9185FFF2CF80815C
:1027C00085FFEDCFCE01C3DFEACFDF91CF91089532
:1027D000EF92FF920F931F93CF93DF93EC0181E071
:1027E000888F9B8D8C8D98131AC0E889F989808118
:1027F00085FF15C09FB7F894EE89FF896083E8894B
:10280000F98980818370806480839FBF81E090E03C
:10281000DF91CF911F910F91FF90EF900895F62EC9
:102820000B8D10E00F5F1F4F0F731127E02E8C8D63
:102830008E110BC00FB607FCFACFE889F9898081A9
:1028400085FFF5CFCE0183DFF2CFEB8DEC0FFD2FAF
:10285000F11DE35AFF4FF0829FB7F8940B8FEA897E
:10286000FB8980818062D0CFCF92DF92EF92FF927E
:102870001F93CF93DF93EC016A017B01122FE8894C
:10288000F98982E08083C11481EED806E104F10465
:1028900099F060E079E08DE390E0A7019601A1D284
:1028A000215031094109510956954795379527958A
:1028B000211580E1380790F0E889F989108260E8F5
:1028C00074E88EE190E0A70196018BD22150310986
:1028D000410951095695479537952795EC85FD8512
:1028E0003083EE85FF852083188EEC89FD89108367
:1028F000EA89FB89808180618083EA89FB89808104
:1029000088608083EA89FB89808180688083EA8986
:10291000FB8980818F7D8083DF91CF911F91FF9014
:10292000EF90DF90CF9008951F920F920FB60F9205
:1029300011240BB60F922F938F939F93EF93FF93D6
:10294000E091BC02F091BD028081E091C202F09161
:10295000C30282FD1DC090818091C5028F5F8F737D
:102960002091C602821741F0E091C502F0E0E455E3
:10297000FD4F958F8093C502FF91EF919F918F91AD
:102980002F910F900BBE0F900FBE0F901F901895B8
:102990008081F2CF1F920F920FB60F9211240BB6C7
:1029A0000F922F933F934F935F936F937F938F93E8
:1029B0009F93AF93BF93EF93FF938CEA92E0C7DEB0
:1029C000FF91EF91BF91AF919F918F917F916F9107
:1029D0005F914F913F912F910F900BBE0F900FBEC3
:1029E0000F901F901895ECEAF2E01382128288EEA5
:1029F00093E0A0E0B0E084839583A683B7838FE75C
:102A000092E09183808385EC90E09587848784ECC5
:102A100090E09787868780EC90E0918B808B81ECAB
:102A200090E0938B828B82EC90E0958B848B86EC8C
:102A300090E0978B868B118E128E138E148E0895D4
:102A40001F920F920FB60F9211240BB60F922F9375
:102A50008F939F93EF93FF93E0915903F0915A0363
:102A60008081E0915F03F091600382FD1DC0908141
:102A7000809162038F5F8F7320916303821741F00F
:102A8000E0916203F0E0E75BFC4F958F8093620377
:102A9000FF91EF919F918F912F910F900BBE0F900F
:102AA0000FBE0F901F9018958081F2CF1F920F924A
:102AB0000FB60F9211240BB60F922F933F934F93A3
:102AC0005F936F937F938F939F93AF93BF93EF9396
:102AD000FF9389E493E03BDEFF91EF91BF91AF91CB
:102AE0009F918F917F916F915F914F913F912F9126
:102AF0000F900BBE0F900FBE0F901F901895E9E43A
:102B0000F3E01382128288EE93E0A0E0B0E08483C9
:102B10009583A683B7838FE792E0918380838DECC2
:102B200090E0958784878CEC90E09787868788EC87
:102B300090E0918B808B89EC90E0938B828B8AEC78
:102B400090E0958B848B8EEC90E0978B868B118E2A
:102B5000128E138E148E08951F920F920FB60F923D
:102B600011240BB60F922F938F939F93EF93FF93A4
:102B7000E091F603F091F7038081E091FC03F0917E
:102B8000FD0382FD1DC090818091FF038F5F8F73D5
:102B900020910004821741F0E091FF03F0E0EA5138
:102BA000FC4F958F8093FF03FF91EF919F918F9141
:102BB0002F910F900BBE0F900FBE0F901F90189586
:102BC0008081F2CF1F920F920FB60F9211240BB695
:102BD0000F922F933F934F935F936F937F938F93B6
:102BE0009F93AF93BF93EF93FF9386EE93E0AFDD98
:102BF000FF91EF91BF91AF919F918F917F916F91D5
:102C00005F914F913F912F910F900BBE0F900FBE90
:102C10000F901F901895E6EEF3E01382128288EE73
:102C200093E0A0E0B0E084839583A683B7838FE729
:102C300092E09183808385ED90E09587848784ED91
:102C400090E09787868780ED90E0918B808B81ED77
:102C500090E0938B828B82ED90E0958B848B86ED58
:102C600090E0978B868B118E128E138E148E0895A2
:102C70001F920F920FB60F9211240BB60F922F9343
:102C80008F939F93EF93FF93E0919304F0919404BB
:102C90008081E0919904F0919A0482FD1DC0908199
:102CA00080919C048F5F8F7320919D04821741F067
:102CB000E0919C04F0E0ED57FB4F958F80939C04CE
:102CC000FF91EF919F918F912F910F900BBE0F90DD
:102CD0000FBE0F901F9018958081F2CF1F920F9218
:102CE0000FB60F9211240BB60F922F933F934F9371
:102CF0005F936F937F938F939F93AF93BF93EF9364
:102D0000FF9383E894E023DDFF91EF91BF91AF91B2
:102D10009F918F917F916F915F914F913F912F91F3
:102D20000F900BBE0F900FBE0F901F901895E3E809
:102D3000F4E01382128288EE93E0A0E0B0E0848396
:102D40009583A683B7838FE792E09183808385E3A1
:102D500091E09587848784E391E09787868780E375
:102D600091E0918B808B81E391E0938B828B82E366
:102D700091E0958B848B86E391E0978B868B118E07
:102D8000128E138E148E0895AF92BF92CF92DF925F
:102D9000EF92FF920F931F93CF93DF936C017B0110
:102DA0008B01040F151FEB015E01AE18BF08C017A1
:102DB000D10759F06991D601ED91FC910190F08114
:102DC000E02DC6011995892B79F7C501DF91CF91C7
:102DD0001F910F91FF90EF90DF90CF90BF90AF9039
:102DE0000895A1E21A2EAA1BBB1BFD010DC0AA1F4C
:102DF000BB1FEE1FFF1FA217B307E407F50720F064
:102E0000A21BB30BE40BF50B661F771F881F991FDE
:102E10001A9469F760957095809590959B01AC0127
:102E2000BD01CF010895EE0FFF1F881F8BBF0790D4
:0A2E3000F691E02D1994F894FFCFFD
:102E3A000000000080BFCDCCCC3DCDCCCC3D000005
:102E4A00803F0000803F0000C842008089440000A3
:102E5A00000000007F430000C84200004843000011
:102E6A0000000000803F000000000000803F0000DA
:102E7A0000000000803F00009642000000000000B1
:102E8A00FA420000803F000000000146697865644C
:102E9A005374657044697363726574650000010058
:102EAA00010001010000000101A00600000000E885
:0E2EBA0013C4169813C9136A138413761300F9
:00000001FF
